{
  "abi": [
    {
      "anonymous": false,
      "inputs": [
        {
          "indexed": true,
          "internalType": "address",
          "name": "previousOwner",
          "type": "address"
        },
        {
          "indexed": true,
          "internalType": "address",
          "name": "newOwner",
          "type": "address"
        }
      ],
      "name": "OwnershipTransferred",
      "type": "event"
    },
    {
      "inputs": [
        {
          "internalType": "string",
          "name": "_id",
          "type": "string"
        }
      ],
      "name": "createQuiz",
      "outputs": [],
      "stateMutability": "nonpayable",
      "type": "function"
    },
    {
      "inputs": [
        {
          "internalType": "string",
          "name": "_id",
          "type": "string"
        },
        {
          "internalType": "contract IERC20",
          "name": "_token",
          "type": "address"
        }
      ],
      "name": "getQuizBalance",
      "outputs": [
        {
          "internalType": "uint256",
          "name": "",
          "type": "uint256"
        }
      ],
      "stateMutability": "view",
      "type": "function"
    },
    {
      "inputs": [],
      "name": "owner",
      "outputs": [
        {
          "internalType": "address",
          "name": "",
          "type": "address"
        }
      ],
      "stateMutability": "view",
      "type": "function"
    },
    {
      "inputs": [
        {
          "internalType": "string",
          "name": "",
          "type": "string"
        }
      ],
      "name": "quizzes",
      "outputs": [
        {
          "internalType": "address",
          "name": "",
          "type": "address"
        }
      ],
      "stateMutability": "view",
      "type": "function"
    },
    {
      "inputs": [],
      "name": "renounceOwnership",
      "outputs": [],
      "stateMutability": "nonpayable",
      "type": "function"
    },
    {
      "inputs": [
        {
          "internalType": "string",
          "name": "_id",
          "type": "string"
        },
        {
          "internalType": "contract IERC20",
          "name": "_token",
          "type": "address"
        },
        {
          "internalType": "address",
          "name": "_receiver",
          "type": "address"
        },
        {
          "internalType": "uint256",
          "name": "_amount",
          "type": "uint256"
        }
      ],
      "name": "sendQuizReward",
      "outputs": [],
      "stateMutability": "nonpayable",
      "type": "function"
    },
    {
      "inputs": [
        {
          "internalType": "address",
          "name": "newOwner",
          "type": "address"
        }
      ],
      "name": "transferOwnership",
      "outputs": [],
      "stateMutability": "nonpayable",
      "type": "function"
    }
  ],
  "bytecode": {
    "object": "0x608060405234801561001057600080fd5b5061001a3361001f565b61006f565b600080546001600160a01b038381166001600160a01b0319831681178455604051919092169283917f8be0079c531659141344cd1fd0a4f28419497f9722a3daafe3b4186f6b6457e09190a35050565b6111718061007e6000396000f3fe60806040523480156200001157600080fd5b5060043610620000875760003560e01c80639f1333b211620000625780639f1333b214620000d9578063c32a794814620000ff578063f259b5721462000136578063f2fde38b146200014d57600080fd5b806365641b60146200008c578063715018a614620000a55780638da5cb5b14620000af575b600080fd5b620000a36200009d366004620005ab565b62000164565b005b620000a362000271565b6000546001600160a01b03165b6040516001600160a01b0390911681526020015b60405180910390f35b620000f0620000ea366004620005fa565b62000289565b604051908152602001620000d0565b620000bc62000110366004620005ab565b80516020818301810180516001825292820191909301209152546001600160a01b031681565b620000a36200014736600462000652565b62000324565b620000a36200015e366004620006c4565b620003c7565b6200016e62000446565b60006001600160a01b03166001826040516200018b91906200071e565b908152604051908190036020019020546001600160a01b031614620001ee5760405162461bcd60e51b81526020600482015260146024820152735175697a20616c7265616479206578697374732160601b60448201526064015b60405180910390fd5b600081604051620001ff90620004f2565b6200020b91906200073c565b604051809103906000f08015801562000228573d6000803e3d6000fd5b509050806001836040516200023e91906200071e565b90815260405190819003602001902080546001600160a01b03929092166001600160a01b03199092169190911790555050565b6200027b62000446565b620002876000620004a2565b565b6000806001846040516200029e91906200071e565b908152604051908190036020018120546370a0823160e01b82526001600160a01b039081166004830181905292508416906370a0823190602401602060405180830381865afa158015620002f6573d6000803e3d6000fd5b505050506040513d601f19601f820116820180604052508101906200031c919062000771565b949350505050565b6200032e62000446565b60006001856040516200034291906200071e565b9081526040519081900360200181205463358d7baf60e11b82526001600160a01b03868116600484015285811660248401526044830185905216915081908190636b1af75e90606401600060405180830381600087803b158015620003a657600080fd5b505af1158015620003bb573d6000803e3d6000fd5b50505050505050505050565b620003d162000446565b6001600160a01b038116620004385760405162461bcd60e51b815260206004820152602660248201527f4f776e61626c653a206e6577206f776e657220697320746865207a65726f206160448201526564647265737360d01b6064820152608401620001e5565b6200044381620004a2565b50565b6000546001600160a01b03163314620002875760405162461bcd60e51b815260206004820181905260248201527f4f776e61626c653a2063616c6c6572206973206e6f7420746865206f776e65726044820152606401620001e5565b600080546001600160a01b038381166001600160a01b0319831681178455604051919092169283917f8be0079c531659141344cd1fd0a4f28419497f9722a3daafe3b4186f6b6457e09190a35050565b6109b0806200078c83390190565b634e487b7160e01b600052604160045260246000fd5b600082601f8301126200052857600080fd5b813567ffffffffffffffff8082111562000546576200054662000500565b604051601f8301601f19908116603f0116810190828211818310171562000571576200057162000500565b816040528381528660208588010111156200058b57600080fd5b836020870160208301376000602085830101528094505050505092915050565b600060208284031215620005be57600080fd5b813567ffffffffffffffff811115620005d657600080fd5b6200031c8482850162000516565b6001600160a01b03811681146200044357600080fd5b600080604083850312156200060e57600080fd5b823567ffffffffffffffff8111156200062657600080fd5b620006348582860162000516565b92505060208301356200064781620005e4565b809150509250929050565b600080600080608085870312156200066957600080fd5b843567ffffffffffffffff8111156200068157600080fd5b6200068f8782880162000516565b9450506020850135620006a281620005e4565b92506040850135620006b481620005e4565b9396929550929360600135925050565b600060208284031215620006d757600080fd5b8135620006e481620005e4565b9392505050565b60005b8381101562000708578181015183820152602001620006ee565b8381111562000718576000848401525b50505050565b6000825162000732818460208701620006eb565b9190910192915050565b60208152600082518060208401526200075d816040850160208701620006eb565b601f01601f19169190910160400192915050565b6000602082840312156200078457600080fd5b505191905056fe60806040523480156200001157600080fd5b50604051620009b0380380620009b08339810160408190526200003491620000bb565b6200003f3362000055565b60016200004d828262000226565b5050620002f2565b600080546001600160a01b038381166001600160a01b0319831681178455604051919092169283917f8be0079c531659141344cd1fd0a4f28419497f9722a3daafe3b4186f6b6457e09190a35050565b634e487b7160e01b600052604160045260246000fd5b60006020808385031215620000cf57600080fd5b82516001600160401b0380821115620000e757600080fd5b818501915085601f830112620000fc57600080fd5b815181811115620001115762000111620000a5565b604051601f8201601f19908116603f011681019083821181831017156200013c576200013c620000a5565b8160405282815288868487010111156200015557600080fd5b600093505b828410156200017957848401860151818501870152928501926200015a565b828411156200018b5760008684830101525b98975050505050505050565b600181811c90821680620001ac57607f821691505b602082108103620001cd57634e487b7160e01b600052602260045260246000fd5b50919050565b601f8211156200022157600081815260208120601f850160051c81016020861015620001fc5750805b601f850160051c820191505b818110156200021d5782815560010162000208565b5050505b505050565b81516001600160401b03811115620002425762000242620000a5565b6200025a8162000253845462000197565b84620001d3565b602080601f831160018114620002925760008415620002795750858301515b600019600386901b1c1916600185901b1785556200021d565b600085815260208120601f198616915b82811015620002c357888601518255948401946001909101908401620002a2565b5085821015620002e25787850151600019600388901b60f8161c191681555b5050505050600190811b01905550565b6106ae80620003026000396000f3fe6080604052600436106100565760003560e01c80636b1af75e14610097578063715018a6146100b75780638da5cb5b146100cc578063af640d0f146100f9578063f2fde38b1461011b578063f8b2cb4f1461013b57005b3661009557604080513381523460208201527ff1b03f708b9c39f453fe3f0cef84164c7d6f7df836df0796e1e9c2bce6ee397e910160405180910390a1005b005b3480156100a357600080fd5b506100956100b2366004610549565b610169565b3480156100c357600080fd5b506100956102fe565b3480156100d857600080fd5b506000546040516001600160a01b0390911681526020015b60405180910390f35b34801561010557600080fd5b5061010e610312565b6040516100f0919061058a565b34801561012757600080fd5b506100956101363660046105df565b6103a0565b34801561014757600080fd5b5061015b6101563660046105df565b610419565b6040519081526020016100f0565b61017161048a565b6040516370a0823160e01b81523060048201526000906001600160a01b038516906370a0823190602401602060405180830381865afa1580156101b8573d6000803e3d6000fd5b505050506040513d601f19601f820116820180604052508101906101dc9190610603565b9050808211156102335760405162461bcd60e51b815260206004820152601f60248201527f4e6f20656e6f7567682066756e647320746f2073656e6420726577617264210060448201526064015b60405180910390fd5b60405163a9059cbb60e01b81526001600160a01b0384811660048301526024820184905285169063a9059cbb906044016020604051808303816000875af1158015610282573d6000803e3d6000fd5b505050506040513d601f19601f820116820180604052508101906102a6919061061c565b6102af57600080fd5b604080513381526001600160a01b03851660208201529081018390527ffda3a3e0e1479b43cb1c701f7576187f4c4ad80768d627387e00184302f7d88e9060600160405180910390a150505050565b61030661048a565b61031060006104e4565b565b6001805461031f9061063e565b80601f016020809104026020016040519081016040528092919081815260200182805461034b9061063e565b80156103985780601f1061036d57610100808354040283529160200191610398565b820191906000526020600020905b81548152906001019060200180831161037b57829003601f168201915b505050505081565b6103a861048a565b6001600160a01b03811661040d5760405162461bcd60e51b815260206004820152602660248201527f4f776e61626c653a206e6577206f776e657220697320746865207a65726f206160448201526564647265737360d01b606482015260840161022a565b610416816104e4565b50565b6040516370a0823160e01b81523060048201526000906001600160a01b038316906370a0823190602401602060405180830381865afa158015610460573d6000803e3d6000fd5b505050506040513d601f19601f820116820180604052508101906104849190610603565b92915050565b6000546001600160a01b031633146103105760405162461bcd60e51b815260206004820181905260248201527f4f776e61626c653a2063616c6c6572206973206e6f7420746865206f776e6572604482015260640161022a565b600080546001600160a01b038381166001600160a01b0319831681178455604051919092169283917f8be0079c531659141344cd1fd0a4f28419497f9722a3daafe3b4186f6b6457e09190a35050565b6001600160a01b038116811461041657600080fd5b60008060006060848603121561055e57600080fd5b833561056981610534565b9250602084013561057981610534565b929592945050506040919091013590565b600060208083528351808285015260005b818110156105b75785810183015185820160400152820161059b565b818111156105c9576000604083870101525b50601f01601f1916929092016040019392505050565b6000602082840312156105f157600080fd5b81356105fc81610534565b9392505050565b60006020828403121561061557600080fd5b5051919050565b60006020828403121561062e57600080fd5b815180151581146105fc57600080fd5b600181811c9082168061065257607f821691505b60208210810361067257634e487b7160e01b600052602260045260246000fd5b5091905056fea264697066735822122013b59f1bfd9f4286324f828990e89c808d84ca9af0ff0da78dfc06ee0206859664736f6c634300080f0033a26469706673582212201fe5436d0396bd2b778fff0a207563994db45b52cbf05fb681d9e83a2d5f447364736f6c634300080f0033",
    "linkReferences": {}
  },
  "methodIdentifiers": {
    "createQuiz(string)": "65641b60",
    "getQuizBalance(string,address)": "9f1333b2",
    "owner()": "8da5cb5b",
    "quizzes(string)": "c32a7948",
    "renounceOwnership()": "715018a6",
    "sendQuizReward(string,address,address,uint256)": "f259b572",
    "transferOwnership(address)": "f2fde38b"
  },
  "id": 17
}