{
  "abi": [
    {
      "inputs": [
        {
          "internalType": "string",
          "name": "_id",
          "type": "string"
        }
      ],
      "stateMutability": "nonpayable",
      "type": "constructor"
    },
    {
      "anonymous": false,
      "inputs": [
        {
          "indexed": true,
          "internalType": "address",
          "name": "previousOwner",
          "type": "address"
        },
        {
          "indexed": true,
          "internalType": "address",
          "name": "newOwner",
          "type": "address"
        }
      ],
      "name": "OwnershipTransferred",
      "type": "event"
    },
    {
      "anonymous": false,
      "inputs": [
        {
          "indexed": false,
          "internalType": "address",
          "name": "_from",
          "type": "address"
        },
        {
          "indexed": false,
          "internalType": "uint256",
          "name": "_amount",
          "type": "uint256"
        }
      ],
      "name": "TransferReceived",
      "type": "event"
    },
    {
      "anonymous": false,
      "inputs": [
        {
          "indexed": false,
          "internalType": "address",
          "name": "_from",
          "type": "address"
        },
        {
          "indexed": false,
          "internalType": "address",
          "name": "_destAddr",
          "type": "address"
        },
        {
          "indexed": false,
          "internalType": "uint256",
          "name": "_amount",
          "type": "uint256"
        }
      ],
      "name": "TransferSent",
      "type": "event"
    },
    {
      "stateMutability": "payable",
      "type": "fallback"
    },
    {
      "inputs": [
        {
          "internalType": "contract IERC20",
          "name": "_token",
          "type": "address"
        }
      ],
      "name": "getBalance",
      "outputs": [
        {
          "internalType": "uint256",
          "name": "",
          "type": "uint256"
        }
      ],
      "stateMutability": "view",
      "type": "function"
    },
    {
      "inputs": [],
      "name": "id",
      "outputs": [
        {
          "internalType": "string",
          "name": "",
          "type": "string"
        }
      ],
      "stateMutability": "view",
      "type": "function"
    },
    {
      "inputs": [],
      "name": "owner",
      "outputs": [
        {
          "internalType": "address",
          "name": "",
          "type": "address"
        }
      ],
      "stateMutability": "view",
      "type": "function"
    },
    {
      "inputs": [],
      "name": "renounceOwnership",
      "outputs": [],
      "stateMutability": "nonpayable",
      "type": "function"
    },
    {
      "inputs": [
        {
          "internalType": "contract IERC20",
          "name": "_token",
          "type": "address"
        },
        {
          "internalType": "address",
          "name": "_receiver",
          "type": "address"
        },
        {
          "internalType": "uint256",
          "name": "_amount",
          "type": "uint256"
        }
      ],
      "name": "sendReward",
      "outputs": [],
      "stateMutability": "nonpayable",
      "type": "function"
    },
    {
      "inputs": [
        {
          "internalType": "address",
          "name": "newOwner",
          "type": "address"
        }
      ],
      "name": "transferOwnership",
      "outputs": [],
      "stateMutability": "nonpayable",
      "type": "function"
    },
    {
      "stateMutability": "payable",
      "type": "receive"
    }
  ],
  "bytecode": {
    "object": "0x60806040523480156200001157600080fd5b50604051620009b0380380620009b08339810160408190526200003491620000bb565b6200003f3362000055565b60016200004d828262000226565b5050620002f2565b600080546001600160a01b038381166001600160a01b0319831681178455604051919092169283917f8be0079c531659141344cd1fd0a4f28419497f9722a3daafe3b4186f6b6457e09190a35050565b634e487b7160e01b600052604160045260246000fd5b60006020808385031215620000cf57600080fd5b82516001600160401b0380821115620000e757600080fd5b818501915085601f830112620000fc57600080fd5b815181811115620001115762000111620000a5565b604051601f8201601f19908116603f011681019083821181831017156200013c576200013c620000a5565b8160405282815288868487010111156200015557600080fd5b600093505b828410156200017957848401860151818501870152928501926200015a565b828411156200018b5760008684830101525b98975050505050505050565b600181811c90821680620001ac57607f821691505b602082108103620001cd57634e487b7160e01b600052602260045260246000fd5b50919050565b601f8211156200022157600081815260208120601f850160051c81016020861015620001fc5750805b601f850160051c820191505b818110156200021d5782815560010162000208565b5050505b505050565b81516001600160401b03811115620002425762000242620000a5565b6200025a8162000253845462000197565b84620001d3565b602080601f831160018114620002925760008415620002795750858301515b600019600386901b1c1916600185901b1785556200021d565b600085815260208120601f198616915b82811015620002c357888601518255948401946001909101908401620002a2565b5085821015620002e25787850151600019600388901b60f8161c191681555b5050505050600190811b01905550565b6106ae80620003026000396000f3fe6080604052600436106100565760003560e01c80636b1af75e14610097578063715018a6146100b75780638da5cb5b146100cc578063af640d0f146100f9578063f2fde38b1461011b578063f8b2cb4f1461013b57005b3661009557604080513381523460208201527ff1b03f708b9c39f453fe3f0cef84164c7d6f7df836df0796e1e9c2bce6ee397e910160405180910390a1005b005b3480156100a357600080fd5b506100956100b2366004610549565b610169565b3480156100c357600080fd5b506100956102fe565b3480156100d857600080fd5b506000546040516001600160a01b0390911681526020015b60405180910390f35b34801561010557600080fd5b5061010e610312565b6040516100f0919061058a565b34801561012757600080fd5b506100956101363660046105df565b6103a0565b34801561014757600080fd5b5061015b6101563660046105df565b610419565b6040519081526020016100f0565b61017161048a565b6040516370a0823160e01b81523060048201526000906001600160a01b038516906370a0823190602401602060405180830381865afa1580156101b8573d6000803e3d6000fd5b505050506040513d601f19601f820116820180604052508101906101dc9190610603565b9050808211156102335760405162461bcd60e51b815260206004820152601f60248201527f4e6f20656e6f7567682066756e647320746f2073656e6420726577617264210060448201526064015b60405180910390fd5b60405163a9059cbb60e01b81526001600160a01b0384811660048301526024820184905285169063a9059cbb906044016020604051808303816000875af1158015610282573d6000803e3d6000fd5b505050506040513d601f19601f820116820180604052508101906102a6919061061c565b6102af57600080fd5b604080513381526001600160a01b03851660208201529081018390527ffda3a3e0e1479b43cb1c701f7576187f4c4ad80768d627387e00184302f7d88e9060600160405180910390a150505050565b61030661048a565b61031060006104e4565b565b6001805461031f9061063e565b80601f016020809104026020016040519081016040528092919081815260200182805461034b9061063e565b80156103985780601f1061036d57610100808354040283529160200191610398565b820191906000526020600020905b81548152906001019060200180831161037b57829003601f168201915b505050505081565b6103a861048a565b6001600160a01b03811661040d5760405162461bcd60e51b815260206004820152602660248201527f4f776e61626c653a206e6577206f776e657220697320746865207a65726f206160448201526564647265737360d01b606482015260840161022a565b610416816104e4565b50565b6040516370a0823160e01b81523060048201526000906001600160a01b038316906370a0823190602401602060405180830381865afa158015610460573d6000803e3d6000fd5b505050506040513d601f19601f820116820180604052508101906104849190610603565b92915050565b6000546001600160a01b031633146103105760405162461bcd60e51b815260206004820181905260248201527f4f776e61626c653a2063616c6c6572206973206e6f7420746865206f776e6572604482015260640161022a565b600080546001600160a01b038381166001600160a01b0319831681178455604051919092169283917f8be0079c531659141344cd1fd0a4f28419497f9722a3daafe3b4186f6b6457e09190a35050565b6001600160a01b038116811461041657600080fd5b60008060006060848603121561055e57600080fd5b833561056981610534565b9250602084013561057981610534565b929592945050506040919091013590565b600060208083528351808285015260005b818110156105b75785810183015185820160400152820161059b565b818111156105c9576000604083870101525b50601f01601f1916929092016040019392505050565b6000602082840312156105f157600080fd5b81356105fc81610534565b9392505050565b60006020828403121561061557600080fd5b5051919050565b60006020828403121561062e57600080fd5b815180151581146105fc57600080fd5b600181811c9082168061065257607f821691505b60208210810361067257634e487b7160e01b600052602260045260246000fd5b5091905056fea264697066735822122013b59f1bfd9f4286324f828990e89c808d84ca9af0ff0da78dfc06ee0206859664736f6c634300080f0033",
    "linkReferences": {}
  },
  "methodIdentifiers": {
    "getBalance(address)": "f8b2cb4f",
    "id()": "af640d0f",
    "owner()": "8da5cb5b",
    "renounceOwnership()": "715018a6",
    "sendReward(address,address,uint256)": "6b1af75e",
    "transferOwnership(address)": "f2fde38b"
  },
  "id": 16
}